:020000040800F2
:1000000000000220116600086166000861660008B1
:100010006166000861660008616600080000000073
:100020000000000000000000000000006166000801
:100030006166000800000000616600084B37000898
:100040006166000861660008616600086166000874
:100050006166000861660008453800084B380008F2
:1000600051380008573800085D38000861660008FC
:100070006166000861660008616600086166000844
:100080006166000861660008616600086166000834
:100090006166000861660008616600086338000850
:1000A000E927000801270008FD2700082527000888
:1000B000392700084D2700086127000861660008FD
:1000C00061660008616600086166000861660008F4
:1000D000616600082D450008454500086145000897
:1000E0008B38000861660008D15C00081128000800
:1000F000B127000825280008D527000861660008F8
:1001000061660008616600087527000861660008DE
:100110007D45000895450008892700089D270008AF
:100120006166000861660008616600086166000893
:100130006166000861660008616600086166000883
:10014000616600086166000861660008C55C000819
:10015000616600086166000861660008AD45000838
:100160006166000861660008616600086166000853
:100170006166000861660008616600080000000012
:080180006166000861660008D9
:1001900010F8012B11F8013B012A28BF9A42F7D031
:1001A000D01A7047034613F8012B002AFBD1181A06
:1001B000013870470000000000000000000000004F
:1001C00001F0FF01102A2BDB10F0070F08D010F808
:1001D000013B013A8B422DD010F0070F42B3F6D10C
:1001E000F0B441EA012141EA014122F007047FF025
:1001F00000070023F0E80256083C85EA010586EA7C
:10020000010685FA47F5A3FA87F586FA47F6A5FAB7
:1002100087F68EB9EED1F0BC01F0FF0102F00702C3
:1002200032B110F8013B013A83EA010313B1F8D16E
:100230000020704701387047002D06BF354603384F
:10024000073815F0010F07D1013015F4807F02BF88
:10025000013015F4C03F0130F0BC0138704700BFD9
:1002600053B94AB9002908BF00281CBF4FF0FF311D
:100270004FF0FF3000F00CB8ADF1080C6DE904CE82
:1002800007F034FBDDF804E0DDE9022304B0704739
:10029000704700BF10B5054C237833B9044B13B138
:1002A0000448AFF300800123237010BD1802002022
:1002B00000000000EC7B000808B5034B1BB10349AC
:1002C0000348AFF3008008BD000000001C020020BE
:1002D000EC7B000808B50321CF2006F0EBF90A20DB
:1002E00006F08CFA0121CF2006F0E4F90021CF209E
:1002F00006F04AFA0121CE2006F0DCF90021CE20DA
:1003000006F042FA074806224FF4E13105F0F0FF0B
:1003100028220021044806F0ADFC06F06DFA034BDC
:10032000186008BD44120020400200203C0200205A
:1003300070B505460C460026AE4200DB70BD0121BB
:10034000CE2006F021FA204606F058FA0021CE20F1
:1003500006F01AFA204606F051FA0136ECE70000E2
:1003600000B599B02C4908AB6A4606F055FC022846
:100370004CD12A496846FFF70BFF98B908A92848CD
:100380001F2206F07FFC2749274806F043F8642126
:100390000220FFF7CDFF0121CE2006F0F5F919B0BC
:1003A0005DF804FB21496846FFF7F2FE30B908A862
:1003B00006F0BCFA1A4B1E491862E5E71D4968466B
:1003C000FFF7E6FE30B908A806F0B0FA144B1A4958
:1003D0005862D9E719496846FFF7DAFE38B9184B71
:1003E0000121CF20197006F0CFF91649CCE7164944
:1003F0006846FFF7CDFE014630B9114B1870CF208B
:1004000006F0C2F91149BFE71149BDE71149064895
:1004100006F000F8C3E700BF107C0008267C000847
:1004200040020020217C000844120020387C000893
:10043000337C0008467C0008417C0008547C00089E
:10044000340200204F7C0008627C00085D7C0008BC
:100450006C7C00087D7C000808B5C42006F014F907
:1004600007EE900A9FED117ADFED116A9FED110AF8
:10047000F8EEE77A67EE877A86EEA77A37EE407A6B
:1004800087EE000A07F008F99FED0B7AC0EE077AB5
:100490009FED0A7A77EE877AB7EE007A87EE270A21
:1004A000DFED077A30EE670A08BD00BF0D68533BE9
:1004B0000022A1480050C34700E076450FCF5B3BC8
:1004C0003393884338B52DED028B3E4C3E4805F002
:1004D00097FD002854D13D4B1C787CB906F08CF96F
:1004E0003B4B1B68C01A3B4B984207D92146CF2093
:1004F00006F04AF92146CE2006F046F9364C06F0C1
:100500007BF92368C01AB0F57A7F58D306F074F9E6
:100510002060324CFFF7A0FF236A002BB0EE408A28
:1005200010DD07EE903AF8EEE77AF4EEC07AF1EEDD
:1005300010FA07D50021CF2006F026F928492248D5
:1005400005F068FF636A002B0CDD07EE903AF8EEC9
:10055000E77AF4EEC87AF1EE10FA03DD21491A4881
:1005600005F058FF2049184805F03AFFB0EE480A58
:10057000BDEC028B1448BDE83840022105F0ECBF09
:10058000114805F0FBFEC0B20A282388174A01D0A3
:10059000FE2B10D900251548D554FFF7E1FE4FF486
:1005A000807229461148258006F064FB06F024F984
:1005B000074B18608AE7591CD054218086E7BDECB0
:1005C000028B38BD68020020441200203402002053
:1005D0003C02002040771B0038020020400200202F
:1005E0008E7C0008AF7C0008C57C00086A020020F1
:1005F0007047000038B50E4B1A784FF47A73B3FB8E
:10060000F2F30C4A05461068B0FBF3F000F0FCFA78
:10061000044658B90F2D09D8024629464FF0FF303D
:1006200000F0A0FA044B20461D6038BD0120FCE715
:1006300000000020380000200400002008B50B4B0B
:100640001A6842F400721A601A6842F480621A60F2
:100650001A6842F480721A60032000F071FA0020D8
:10066000FFF7C8FFFFF7C4FF002008BD003C0240B1
:10067000034A044B11681B780B441360704700BF9A
:100680006C03002000000020014B1868704700BF79
:100690006C03002038B50446FFF7F6FF631C1CBF4F
:1006A000054B1B78054618BFE418FFF7EDFF431B09
:1006B000A342FAD338BD00BF0000002038B504467D
:1006C000002800F09B80056C25B902F003FF6564EB
:1006D00084F83C50236CDB0600F18E80236C23F4FD
:1006E000885323F0020343F002032364444B5A6807
:1006F00022F440325A605A6861680A435A6023689B
:1007000021695A6822F480725A605A6842EA0122CA
:100710005A605A68A16822F040725A605A680A43C7
:100720005A609A68E16822F400629A609A680A4303
:100730009A603449A26A8A4252D0996821F0706165
:10074000996099680A439A609A68E16A22F0405277
:100750009A609A680A439A609A6822F002029A6044
:100760009A68217E42EA41029A6094F82020002A89
:100770003ED05A68616A42F400625A605A6822F4B4
:1007800060425A605A68013942EA41325A60DA6A74
:10079000E16922F47002DA62DA6A013942EA01524E
:1007A000DA629A6822F400729A609A6894F83010BB
:1007B00042EA41229A609A68616922F480629A60F2
:1007C0009A68002042EA81229A606064236C23F0D8
:1007D000030343F001032364002384F83C3038BD55
:1007E0009A6822F070629A609A6822F04052B2E7EA
:1007F0005A6822F40062C9E70120EDE70120EEE724
:10080000002301400100000F38B50446A0B1036C7D
:1008100043F00203036403689A6822F001029A60BD
:100820009D6815F0010503D102F09CFE6564256406
:10083000002084F83C0038BD0120FCE782B0002392
:10084000019390F83C30012B69D0012380F83C30B3
:1008500003689A68D2070BD59A68D1071AD4036C3B
:1008600043F010030364436C43F0010343644CE022
:100870009A682C4942F001029A602B4A1268B2FB36
:10088000F1F202EB42020192019A002AE4D0019AAD
:10089000013AF8E7026C22F4E06222F0010242F42D
:1008A000807202645A68520541BF026C22F44052C1
:1008B00042F480520264026C12F480521CBF426CFB
:1008C00022F006024264002280F83C206FF02202EF
:1008D0001A60164A516811F01F0F15491CD18B423E
:1008E00007D001F580718B420CD1526812F01F0FB6
:1008F0000BD19A6812F0405F07D19A6842F08042AB
:100900009A6002E00B498B4202D0002002B070478F
:10091000526812F0100FEBE78B42F6D1E9E70220A4
:10092000F4E700BF40420F003800002000230140E0
:10093000002001400022014090F83C30012B14D0EF
:1009400003689A6822F001029A609B68DB0707D46B
:10095000036C23F4885323F0010343F00103036481
:10096000002380F83C301846704702207047036827
:100970009A68520570B504460D460BD59B68DE0596
:1009800008D5036C43F020030364002380F83C3057
:10099000012070BDFFF778FE064623681A689107AC
:1009A0000CD56FF012021A60226C42F400722264BD
:1009B0009A6812F0405F17D00020EAE7681CEDD07B
:1009C00065B923681B6813F00203E6D1226C84F832
:1009D0003C3042F0040222640320DAE7FFF754FEC1
:1009E000801BA842EDD8D8E7227E002AE4D1DA6A3B
:1009F00012F4700F02D09B685A05DDD4236C23F4E7
:100A000080732364236CDB04D6D4236C43F001038E
:100A10002364D1E70368D86C70470000F7B5002362
:100A2000019390F83C30012B05467CD0012380F8DF
:100A30003C3008682B688E68092884B230D904EBF2
:100A40004402DF681E3A4FF0070C0CFA02FC27EA5A
:100A50000C07DF60DF6806FA02F23A43DA604968A1
:100A6000062901EB81022AD8596B053A1F269640C8
:100A700021EA06015963596B04FA02F20A435A63E8
:100A80002A4A934207D1122834D1D2F8043343F4CE
:100A90008003C2F80433002085F83C0003B0F0BDA9
:100AA0001A6900EB400C072707FA0CF722EA070245
:100AB0001A611A6906FA0CF616431E61CFE70C2973
:100AC0004FF01F010BD81E6B233A914026EA01011B
:100AD0001963196B04FA02F20A431A63D0E7DE6A5B
:100AE000413A914026EA0101D962D96A94400C4307
:100AF000DC62C5E7A0F11003012BCCD80C4A536887
:100B0000102843F400035360C5D10A4B0A4A1B68FE
:100B1000B3FBF2F30A2253430193019B002BBAD09B
:100B2000019B013BF8E70220B8E700BF002001402D
:100B3000002301403800002040420F00006C704745
:100B40000749CA6822F4E0620302120403F4E06376
:100B5000120C134343F0BF6343F40033CB60704780
:100B600000ED00E0164B30B5DC68C4F30224C4F19C
:100B70000703251D042B28BF0423062D4FF0FF3546
:100B80008CBF033C002405FA03F321EA0303A540CC
:100B900022EA0502A340002843EA0203ACBF00F1A9
:100BA0006040084A4FEA0313B8BF00F00F00DBB201
:100BB000AABF00F56140135480F8003330BD00BF78
:100BC00000ED00E014ED00E0002807DB044A4109D5
:100BD000012300F01F00834042F82130704700BF1E
:100BE00000E100E000280CDB4309064900F01F008B
:100BF00020330122824041F82320BFF34F8FBFF3FF
:100C00006F8F704700E100E00138B0F1807F0BD2B8
:100C10004FF0E023054A5861F02182F823100020AC
:100C2000072298611A6170470120704700ED00E0CB
:100C3000002808DB4309044900F01F00012260334B
:100C4000824041F82320704700E100E0704708B57A
:100C5000FFF7FCFF08BD704710B5044650B143795B
:100C600003F0FF0213B90271FFF7F5FF012363716F
:100C7000002010BD0120FCE710B5044640B102235E
:100C8000037102F0FBFB002020616071207110BD38
:100C90000120FCE710B5012358B1046801F01001F0
:100CA000226803FA01F122EA0102226003710020A6
:100CB00010BD1846FCE770B50446866DFFF7E4FCEE
:100CC00094F83530022B054606D080236365012059
:100CD000002384F8343070BD23681A6822F01602AD
:100CE0001A605A6922F080025A61226C0AB9A26C19
:100CF0001AB11A6822F008021A601A6822F001027A
:100D00001A602368186810F0010007D1E26D3F23D4
:100D10009340B360012384F83530D9E7FFF7B4FC82
:100D2000401B0528EDD920230320636584F8350096
:100D3000CEE790F83530022B03D0802343650120A5
:100D400070470268052380F83530136823F00103EB
:100D50001360002070470000044A5169014208B541
:100D600002D0506102F058FD08BD00BF003C0140B8
:100D7000F7B5044610B390F89534056803F0FF0208
:100D80001BB980F8942404F099FE0323B5F1A04F19
:100D900084F8953404BF0023A371206801F07EFE1F
:100DA000237C8DF80030251D95E80E00206801F0A9
:100DB000BBFD014630B1022384F895340125284655
:100DC00003B0F0BD206801F06FFE0028F3D1267952
:100DD00004F1140301270246C1B28E4203F1240339
:100DE0001BD8002104F515730A46C8B2864203F1E8
:100DF000240320D8237C8DF8003095E80E0020686D
:100E000001F0CEFE05460028D5D10123607420688C
:100E100084F8953402F0F9F9D1E723F80A0C43E994
:100E2000072203F8237C03F8241C03F8202C43F842
:100E3000142C0130D0E743E9072203F8232C03F8F0
:100E4000240C03F8202C43F8142C0131CDE710B505
:100E50000446006894F89434012B15D0012384F8DB
:100E60009434C3685B0606D5637B012B02BF836B9A
:100E700043F48033836301F00BFE206802F0B7F97E
:100E8000002084F8940410BD0220FCE710B590F80F
:100E90009424012A04460AD0012280F89424417443
:100EA000006802F094F9002084F8940410BD022038
:100EB000FCE770B50546242401F00F0011F0800F07
:100EC00000FB04F414BF04F1140104F5157105EBE3
:100ED000040615BF491949190124002414BF74756B
:100EE00086F85542C2F30A028A604A7808700B718C
:100EF00002B14883022B04BF00234B7195F8943450
:100F0000012B09D00123286885F8943401F00DFFE6
:100F1000002085F8940470BD0220FCE701F00F0268
:100F2000242311F0800F02FB03F310B514BF03F16B
:100F3000140103F51571044618BF091918440BBFB5
:100F4000091901230023437508BF80F855320A7040
:100F500094F89434012B09D00123206884F8943448
:100F600001F022FF002084F8940410BD0220FCE769
:100F700038B51546242401F00F02544304F51571C9
:100F80000444C4E99853002384F8553284F8542269
:100F9000C4F868328279012A014408BFC4F870524B
:100FA000006801F0ADFF002038BD01F00F012423DF
:100FB00003FB0100D0F86802704738B515462424B9
:100FC00001F00F02544304F114010444C4E908532E
:100FD0000023A36201236375227582799A4201443A
:100FE00008BF2563006801F08BFF002038BD38B5CD
:100FF000037901F00F05AB4204462BD311F0800FAB
:101000004FF024031DD06B4303F11401034401226C
:1010100001445A7501238B700D7094F894249A4200
:101020001AD0206884F8943402F07DF82DB9A179A3
:10103000206804F29C4202F037F9002084F89404FE
:1010400038BD4B4303F5157103440022014483F876
:101050005522DFE70120F3E70220F1E738B50379F5
:1010600001F00F029342044625D3242311F0800F90
:1010700002FB03F314BF03F1140103F515711844C7
:1010800015BF09190919012300234FF0000514BFEA
:10109000437580F855328D700A7094F89434012BA2
:1010A0000BD00123206884F8943402F067F884F8A8
:1010B0009454284638BD0120FCE70220FAE701F0ED
:1010C0000F03242253430A064CBF03F1140103F516
:1010D00015710144006801F0BDBE00002DE9F04F1C
:1010E000066889B00446304602F0CBF80390002829
:1010F00040F05681206802F096F8002800F05081F8
:10110000D6F808382068C3F30D23C4F8D43402F0AD
:101110008AF82368870742BF5A6902F002025A61BF
:10112000184602F080F8C00606F500652DD5226845
:10113000936923F010039361D6F8208008F4F0132C
:10114000B3F5802F08F00F0740F02D8147F6F073BC
:1011500018EA030F14D0242303FB0747C8F30A1926
:10116000D7F860124A46304601F0BCFFD7F860322B
:101170004B44C7F86032D7F868324B44C7F868323E
:101180002268936943F010039361206802F04BF8E2
:10119000010300F11B81206802F045F842030CD5E1
:1011A000206802F04CF82746049006F5106B4FF0CB
:1011B000000A049B002B40F0D381206802F033F832
:1011C000002813DA6B6823F001036B6094F8CC34C9
:1011D000012B40F06C82002184F8CC14204600F0F2
:1011E000E8FA2268536903F000435361206802F073
:1011F0001AF801050AD5AB68DA0702D5204604F0D3
:101200001FFD2268536903F400635361206802F0F4
:101210000AF8C30433D56B68206823F001036B60C0
:10122000102101F071FC207906F510634FF67F3133
:10123000039A904200F23F82EB6943F00113EB61A5
:10124000E37B002B00F05482D5F8843043F00B038D
:10125000C5F884306B6C43F00B036B64D6F8003830
:10126000206823F4FE63C6F8003804F29C42A1799A
:1012700002F01AF82268536903F48053536120681E
:1012800001F0D1FF870416D5206801F0FEFF206829
:1012900001F040FDE071276800F002FDE2790146AF
:1012A000384601F085FB204604F0B9FC22685369FA
:1012B00003F400535361206801F0B5FF000707D520
:1012C000204604F0A8FC2268536903F00803536128
:1012D000206801F0A8FF010600F11582206801F0E6
:1012E000A2FFC2020CD5A04606F512690127237998
:1012F000BB4200F221822268536903F480135361D8
:10130000206801F090FF83022DD594F804E0234675
:1013100006F5326001218E4520D993F87CC202681F
:10132000BCF1010F40F01E82002A80F21B82D4F82B
:10133000D47402F4803207F00107BA4240F01282FE
:1013400083F87BC2B26942F08002B261726917060B
:1013500000F108826B6843F400736B602268536984
:1013600003F400135361206801F05DFF410007D5CD
:10137000204604F09FFC2268536903F080435361C8
:10138000206801F050FF42070AD523685D686B07AB
:1013900002D5204604F092FC226853682B43536028
:1013A00009B0BDE8F08FB3F5402F7FF4E9AE082215
:1013B00004F29C41304601F095FE242303FB0747CD
:1013C000C8F30A18D7F868324344D7E6206801F01A
:1013D0002EFF06F530680490A2460027049B002BE0
:1013E0003FF4D9AE049BDB0779D55FFA87FB206811
:1013F000594601F02CFF10F0010F81461FD02068E4
:101400000123C8F8083094F806C0016C00F5306379
:1014100003EB4713BCF1010F9A6840F08B8012F088
:10142000080F07D0B048814209D9120407D54FF4FC
:10143000004203E012F0200F5AD020229A6019F0E7
:10144000080F21D00823C8F808302368A6491A6C71
:1014500003F5306303EB47138A42986804D901040B
:1014600044BF4FF4004098602046059204F0BCFB56
:10147000059A9D498A4207D9A179012904D120689A
:1014800004F29C4201F010FF19F0100F1CBF102352
:10149000C8F8083019F0020F14D073691B0642BF58
:1014A0006B6843F480636B609AF85732012B06D166
:1014B00000238AF857325946204604F0F3FB0223F2
:1014C000C8F8083019F0200F1CBF2023C8F80830D6
:1014D00019F4005F1CBF4FF40053C8F80830049B98
:1014E0005B080137049308F120080AF1240A75E724
:1014F000DFF8F4C1614501D9120498D41A69DAF809
:101500007432C2F312029B1ACAF868326FB9D4F867
:1015100064222AB904F29C42012101F0C5FE04E0D4
:10152000D4F860221A44C4F860225946204604F0D8
:1015300061FB84E7DFF8B4C1614507D111043FF5D1
:1015400076AF9006F1D520229A60EEE7002FECD11D
:10155000D4F86432002BE8D104F29C423946DCE72F
:10156000049BD80740F19A805FFA8AF320680793BA
:10157000194601F075FE10F0010F804620D06B6B0C
:1015800001210AF00F0201FA02F223EA02036B635F
:10159000CBF80810A17901290DD1D7E9072313440D
:1015A0003B62BAF1000F06D1636A23B9206804F2E6
:1015B0009C4201F079FE5FFA8AF1204604F023FB99
:1015C00018F0080F1CBF0823CBF8083018F0100FD4
:1015D0001CBF1023CBF8083018F0400F1CBF40236D
:1015E000CBF8083018F0020F10D05146304601F009
:1015F0008BFAFB7D012B06D10023FB755FFA8AF184
:10160000204604F053FB0223CBF8083018F0800F7B
:1016100044D0D7E909329A4240D8A3EB0208FB69CB
:1016200021680591984528BF984601F5106308F197
:10163000030803EB4A134FEA98080693069B99693F
:101640007B6A89B2414527D39A420BD3059B0AF0A6
:101650000F00D3F834280121814022EA0102C3F8A7
:1016600034281BE0A3EB0209FB69079A059899450A
:1016700028BF9946A3790093396A1FFA89F301F0CC
:101680002BFC3B6ABA6A09F103084B444A444FEA0F
:1016900098083B62BA62D1E79A42D7D2049B5B08B2
:1016A0000AF1010A049324370BF1200B81E520464F
:1016B00004F0DEFA95E599601A6822F400121A60C7
:1016C000C3F80812D3F8002222F40012C3F8002253
:1016D000D3F8002242F00062C3F80022039A0132DC
:1016E00003922033A4E500BF0A30544F0A31544F0F
:1016F0006B6943F4005343F02B036B612B6943F098
:101700000B032B61AAE5B36923F08003B3610127C2
:1017100004F257284FF024092379BB427FF6DEAD4F
:1017200009FB07F318F80330012B03D1F9B2204667
:10173000FFF7C5FC0137EFE798F83C30D9F80020F7
:10174000012B09D1002A07DA67F07F0188F83B30C6
:10175000C9B22046FFF7B3FC013708F1240809F1AC
:101760002009C4E5013124332030D4E5006870B588
:10177000436A120419B913438362002070BD846A5E
:101780004E1E03EB14430024B44205D33F3100EB5B
:10179000810013434360F0E704F1400500EB850549
:1017A00001346D6803EB1543EEE7036800205962CE
:1017B000704770472DE9F341044640B30368DE07E4
:1017C00010D423689D075BD42368190700F19D801E
:1017D00023685A0700F1BD80A369002B40F02481E3
:1017E00000202CE08D4B9A6802F00C02042A07D0EE
:1017F0009A6802F00C02082A0BD15B68590208D5DE
:10180000864B1B689A03DCD56368002BD9D1012075
:1018100015E06368814DB3F5803F13D12B6843F425
:1018200080332B60FEF730FF7C4E054633689B0308
:10183000C7D4FEF729FF401B6428F7D9032002B064
:10184000BDE8F081B3F5A02F04D12B6843F48023C9
:101850002B60E3E72A6822F480322A602A6822F4A7
:1018600080222A60002BDDD1FEF70EFF06462B6892
:101870009F03A6D5FEF708FF801B6428F7D9DDE794
:10188000664B9A6812F00C0F07D09A6802F00C02AF
:10189000082A11D15B685D020ED4604A136899076B
:1018A00002D5E368012BB2D11368216923F0F80354
:1018B00043EAC103136087E7E268594BB2B10122E2
:1018C0001A60FEF7E1FE554D06462B689B0707D5CB
:1018D0002B68226923F0F80343EAC2032B6073E705
:1018E000FEF7D2FE801B0228EFD9A7E71A60FEF7A9
:1018F000CBFE4A4E054633689F077FF565AFFEF77E
:10190000C3FE401B0228F6D998E76269444B82B1B6
:101910000122C3F8802EFEF7B7FE404E0546736FD6
:101920009B073FF555AFFEF7AFFE401B0228F6D9E7
:1019300084E7C3F8802EFEF7A7FE384E0546736F86
:101940009F077FF545AFFEF79FFE401B0228F6D9A3
:1019500074E7324B1A6C12F0805228D101921A6C43
:1019600042F080521A641B6C03F080530193019B78
:1019700001272C4D2B68D8051BD5A368274D012BBB
:1019800027D12B6F43F001032B67FEF77DFE234E1B
:10199000054641F28838336F9A0739D5002F3FF456
:1019A0001BAF1E4A136C23F08053136414E7002707
:1019B000DFE72B6843F480732B60FEF765FE064675
:1019C0002B68D905D9D4FEF75FFE801B0228F7D912
:1019D00034E7052B04D12B6F43F004032B67D0E7CA
:1019E0002A6F22F001022A672A6F22F004022A6776
:1019F000002BCAD1FEF748FE41F2883806462B6F0D
:101A00009B07CBD5FEF740FE801B4045F7D915E775
:101A1000FEF73AFE401B4045BDD90FE700380240B3
:101A20000000474200700040374DAA6802F00C02E7
:101A3000082A3ED0022B354B4FF000021A662BD1FC
:101A4000FEF722FE06462B6899011FD4D4E907321F
:101A50001343626A43EA8213E26A43EA0263A26AB8
:101A60005208013A43EA02436B60284B264D01229B
:101A70001A66FEF709FE04462B689A013FF5B0AEE0
:101A8000FEF702FE001B0228F6D9D7E6FEF7FCFDA2
:101A9000801B0228D7D9D1E6FEF7F6FD04462B6855
:101AA0009B017FF59DAEFEF7EFFD001B0228F6D9E6
:101AB000C4E6012B3FF4ABAE6B68E26903F480012E
:101AC00091427FF4A4AE216A03F03F028A427FF480
:101AD0009EAE616A47F6C0721A40B2EB811F7FF476
:101AE00096AEA26A520803F44031013AB1EB024FBC
:101AF0007FF48DAEE26A03F07063B3EB026F14BF44
:101B0000012000209BE600BF003802400000474251
:101B1000134908B58B6803F00C03042B1CD0082B69
:101B20001CD14A684B68496813F4800314BF0D4800
:101B30000D48C1F3881118BF002302F03F02A1FB3A
:101B40000001FEF78DFB064B5B68C3F301430133D5
:101B50005B00B0FBF3F008BD0248FCE70248FAE77F
:101B60000038024000127A000024F4002DE9F04110
:101B70000D46044610B90120BDE8F081434B1A68B8
:101B800002F007028A4228D321688F072DD4C807A4
:101B900040D43E4B1A6802F00702AA4265D8226878
:101BA00051076BD4130707D5394A2169936823F489
:101BB000604343EAC1039360FFF7AAFF344B354A01
:101BC0009B68C3F30313D35CD840334B1860334B8B
:101BD0001868FEF70FFD0020CEE7CAB21A701B6826
:101BE00003F007038B42C6D1CEE7294B11F0040F57
:101BF0001EBF9A6842F4E0529A600E0742BF9A688C
:101C000042F460429A609A68A06822F0F0020243AF
:101C10009A60BCE762681E4B012A1CD11B6813F452
:101C2000003FA8D01A4EB36823F003031343B360F8
:101C3000FEF72AFD41F288380746B368626803F070
:101C40000C03B3EB820FA4D0FEF71EFDC01B404572
:101C5000F3D9032090E7911E01291B6802D813F0E5
:101C6000007FDEE713F0020FDBE7EAB21A701B68B1
:101C700003F00703AB427FF47EAF90E70449E068CE
:101C80008B6823F4E05303438B608BE7003C0240F6
:101C900000380240C47D0008380000200400002005
:101CA000014B1868704700BF38000020044B054AFC
:101CB0009B68C3F38223D35C034A1068D840704703
:101CC00000380240BC7D000838000020044B054A63
:101CD0009B68C3F34233D35C034A1068D840704713
:101CE00000380240BC7D0008380000207047704773
:101CF000036870B5DD681E69B10704460DD5AA07F3
:101D00000BD56FF002021A61012202779B699B07D3
:101D100069D000F0E4FD00232377710710D56A072E
:101D20000ED523686FF004021A61022222779B69A4
:101D300013F4407F20465CD000F0D1FD00232377D0
:101D400033070FD528070DD523686FF008021A61F5
:101D500004222277DB699907204650D000F0BFFDAE
:101D600000232377F20610D5EB060ED523686FF01B
:101D700010021A6108222277DB6913F4407F2046A3
:101D800043D000F0ACFD00232377F00708D5E90726
:101D900006D523686FF001021A61204600F07CFD31
:101DA000320608D52B0606D523686FF080021A612B
:101DB000204600F0B6F8700608D5690606D52368F7
:101DC0006FF040021A612046FFF791FFB20622D55C
:101DD000AB0620D523686FF0200220461A61BDE8CB
:101DE000704000F09DB800F078FD2046FFF77EFFC0
:101DF00091E700F072FD2046FFF778FF9EE700F0C4
:101E00006CFD2046FFF772FFAAE700F066FD204652
:101E1000FFF76CFFB7E770BD294A0368904212D004
:101E2000B0F1804F0FD0A2F57C4290420BD002F56A
:101E30008062904207D002F58062904203D002F5A2
:101E40007842904208D14A6823F070031343CA686D
:101E500023F44073134316E01A4A9042F7D002F578
:101E600080629042F3D002F580629042EFD0A2F5FA
:101E700098329042EBD002F580629042E7D002F5B2
:101E800080629042E3D04A6923F0800313430360E9
:101E90008B68C3620B688362094B984203D003F5D9
:101EA0008063984201D10B69036301234361036995
:101EB000DB0742BF036923F001030361704700BFE2
:101EC000000001400040014010B5044630B390F8D6
:101ED0003D3003F0FF021BB980F83C2002F0CEF841
:101EE0000223206884F83D30211DFFF795FF012370
:101EF00084F84630002084F83E3084F83F3084F87F
:101F0000403084F8413084F8423084F8433084F81B
:101F1000443084F8453084F83D3010BD0120FCE7A2
:101F200070477047026802F10C0353E8003F23F446
:101F300090730C3242E8003102680029F2D102F1BC
:101F4000140353E8003F23F0010302F1140C4CE8A2
:101F500000310029F3D1036B012B0BD102F10C03EB
:101F600053E8003F23F0100302F10C0C4CE8003161
:101F70000029F3D1202380F8423000230363704707
:101F80000268C16838B5136923F440530B431361E9
:101F9000054683680069D168034368690343E869BB
:101FA00021F4164121F00C0103430B43D360536924
:101FB000A96923F440730B4353611F4B9A4203D02A
:101FC00003F580639A4224D1FFF780FEEA69192164
:101FD000B2F5004FD5E90043A0FB01011CD1DA188E
:101FE0004FF0000545EB0503FEF73AF96422B0FB1C
:101FF000F2F102FB1103DB003233B3FBF2F303F027
:1020000007025B0002EB011203F4F8731344A360B0
:1020100038BDFFF74BFED9E79A009B0FFEF720F97A
:102020006422B0FBF2F102FB11031B013233B3FB5C
:10203000F2F303EB0113EAE700100140704710B51B
:10204000044648B390F8413003F0FF021BB980F812
:102050004020FFF7F3FF2268242384F84130D3683F
:1020600023F40053D3602046FFF78AFF23681A69E0
:1020700022F490421A615A6922F02A025A61DA68FF
:1020800042F40052DA6000202023606484F841307A
:1020900084F84230606310BD0120FCE710B50446AF
:1020A00068B390F8413003F0FF021BB980F840207C
:1020B000FFF7C4FF2268242384F84130D36823F457
:1020C0000053D3602046FFF75BFF23681A6922F4B0
:1020D00090421A615A6922F022025A615A6942F00A
:1020E00008025A61DA6842F40052DA6000202023C4
:1020F000606484F8413084F84230606310BD012090
:10210000FCE790F84130202B10D189B182B1C28414
:1021100001628284016800232122436480F8412007
:10212000CA6842F08002CA601846704702207047B1
:102130000120704708B5806B0023C385C38402F07B
:10214000B7F908BD704790F84230222B07B542D14D
:1021500081680268836AB1F5805F3FD10169002917
:102160003FD15268C2F3080223F8022B8362C38D69
:10217000013B9BB2C385002B2DD10268D16821F0B1
:102180002001D160D16821F48071D160516921F0C2
:1021900001015161202280F842204363026B012A31
:1021A000026828D1036302F10C0353E8003F23F0D7
:1021B000100302F10C0C4CE800310029F3D1136834
:1021C000DB0605D501911368019353680193019BC8
:1021D000818DFFF7B7FF03B05DF804FB39B90169E2
:1021E00029B95268D2B21A70836A0133BEE75268C5
:1021F00002F07F02F7E702F055F9ECE703681A688E
:1022000073B51607D9685D69044608D1960668D586
:102210008D0666D502B0BDE87040FFF794BF05F0AB
:10222000010001F4907505435BD0D60705D5CD05B7
:1022300042BF636C43F001036364530704D518B1D4
:10224000636C43F002036364960704D518B1636CB2
:1022500043F004036364150707D501F0200303432B
:102260001EBF636C43F008036364636C002B32D0C1
:10227000920604D58B0602D52046FFF764FF266838
:102280007369626C03F0400302F0080253EA02052E
:10229000204622D0FFF746FE73695E0618D52268F5
:1022A00002F1140353E8003F23F04003143242E8E4
:1022B00000310029F3D1E06B50B1744B0365FEF798
:1022C00038FD40B1E06B036D02B0BDE870401847C7
:1022D000204602F0EDF802B070BD02F0E9F8656446
:1022E000F9E7206B012840F09580D50640F19280F7
:1022F000C80640F18F80002201921A6801925A6844
:102300000192019A5A6952064ED5E16B0A685268E9
:1023100092B2002ADFD0A08D9042DCD9E285CA6952
:10232000B2F5807F36D003F10C0252E8002F22F480
:10233000807203F10C0040E800210029F3D103F181
:10234000140252E8002F22F0010203F1140040E8C9
:1023500000210029F3D103F1140252E8002F22F0EA
:10236000400203F1140040E800210029F3D12022AB
:1023700084F84220216303F10C0252E8002F22F07E
:10238000100203F10C0040E800210029F3D1E06BBA
:10239000FEF791FC02236363E38DA18DC91A89B214
:1023A0002046FFF7CFFE96E7E28DE18D89B292B22B
:1023B000002990D0A18D891A89B200298BD003F110
:1023C0000C0252E8002F22F4907203F10C0545E84C
:1023D00000200028F3D103F1140252E8002F22F06C
:1023E000010203F1140545E800200028F3D1202262
:1023F00084F84220206303F10C0252E8002F22F0FF
:10240000100203F10C0545E800200028F3D1022357
:102410006363C5E7160628D50D0626D594F8412036
:10242000212A7FF458AFA168226AB1F5805F17D1E5
:102430002169A9B932F8021BC1F30801596022626F
:10244000E28C013A92B2E284002A7FF444AFDA6867
:1024500022F08002DA60DA6842F04002DA603AE79D
:10246000511C216212785A60EAE750067FF533AFBB
:102470004A067FF530AFDA6822F04002DA602023A6
:1024800084F84130204602F010F824E73521000896
:1024900090F84030012B11D00268242380F841309D
:1024A000D36823F00C0343F00803D360202380F8A3
:1024B0004130002380F840301846704702207047B2
:1024C00090F84030012B11D00268242380F841306D
:1024D000D36823F00C0343F00403D360202380F877
:1024E0004130002380F84030184670470220704782
:1024F00090F8412090F8420010437047C2850023B5
:10250000828502694364222380F842308162036835
:102510001AB1DA6842F48072DA605A6942F0010254
:102520005A61DA6842F02002DA600020704770B524
:1025300090F84260202E07D141B13AB100240463E3
:10254000FFF7DCFF204670BD0220FCE70120FAE720
:10255000836810B504462BB1032201469847002337
:10256000C4E9023310BD836810B5044613B10322D9
:1025700001469847204610BD294A9042034633D071
:10258000B0F1804F32D0A2F57C42904230D002F5BB
:10259000806290422ED002F5806290422CD002F5EB
:1025A000806290422AD002F58062904228D002F5E3
:1025B0007042904226D04FF6FF701A4A934223D0C1
:1025C000194A934222D0194A934221D0184A934281
:1025D00020D0184A93421FD0174A93421ED04FF67C
:1025E000FF7398421BD1FEE70020E6E70120E7E7F2
:1025F0000220E8E70320E9E70420EAE70520EBE70B
:102600000620ECE707207047082070470920704734
:102610000A2070470B2070470C2070470D20704730
:1026200000000140004001400044014000480140DA
:1026300000180040001C004000200040014670B51A
:10264000044651F8100FFFF797FF0546084601F0C2
:10265000C1FB094A002342F8253004F16006E3601B
:1026600004F1B005B54204D0103D2846FFF77BFFCA
:10267000F8E7204670BD00BF70030020F8B504469F
:102680000846FFF779FF236903B1FEE71B4DA364FA
:1026900004F10C0245F8202004F110060E22C4E9D2
:1026A0000C33C4E90E33C4E91033C4E916232161A5
:1026B00084F82C3084F84C3084F84D30E460304697
:1026C00001F090FA04F1600504F1B00728461035D6
:1026D000FFF73EFFBD42F9D10023C4E900334FF6B6
:1026E000FF72C4E90632C4E90833A3606361802342
:1026F000A3623046BDE8F840FFF7E6BB7003002058
:1027000010B5074C206810B10430FFF7F1FA606A89
:1027100020B1BDE810400430FFF7EABA10BD00BF99
:1027200070030020034B186810B10430FFF7E0BAC3
:10273000704700BF70030020034B586810B104308D
:10274000FFF7D6BA704700BF70030020034B9868AC
:1027500010B10430FFF7CCBA704700BF70030020FF
:10276000034BD86810B10430FFF7C2BA704700BFFE
:1027700070030020034B186910B10430FFF7B8BA9A
:10278000704700BF70030020034B586910B104303C
:10279000FFF7AEBA704700BF70030020034B986983
:1027A00010B10430FFF7A4BA704700BF70030020D7
:1027B00010B5074CE06910B10430FFF799FA206BAF
:1027C00020B1BDE810400430FFF792BA10BD00BF41
:1027D00070030020034BD86910B10430FFF788BAAA
:1027E000704700BF70030020034B186A10B104301B
:1027F000FFF77EBA704700BF70030020034B986A52
:1028000010B10430FFF774BA704700BF70030020A6
:10281000034BD86A10B10430FFF76ABA704700BFA3
:1028200070030020034B586B10B10430FFF760BAFF
:10283000704700BF700300200022C0E90022C0E9F9
:1028400002227047F8B504460E4600F1600500F11B
:10285000B00728461035FFF7EFFFBD42F9D100233E
:10286000204623613146FFF709FF2046F8BD826804
:1028700010B50AB905F0B6F9BDE81040C3681847AD
:1028800008B500B9FEE701F0ABF90068836E13B13B
:102890006030FFF7ECFF08BDFFF7F2BF10B500B9DD
:1028A000FEE7037F013B072B10D8DFE803F0041499
:1028B0000F100F0F0F12012401F092F90068063477
:1028C00000EB041083680BB1FFF7D1FF10BD0324A8
:1028D000F2E70424F0E70224EEE7FFF7DFBFFFF79B
:1028E000DDBF82B0002302460193019B01330193B7
:1028F000019BB3F1706F15D81369002BF5DA002333
:102900000193136943F001031361019B01330193A8
:10291000019BB3F1706F05D8106910F00100F4D17C
:1029200002B070470320FBE784B038B505AD85E8F9
:102930000E009DF81930012B044627D1836B23F438
:1029400080338363C36823F4840323F04003C360AC
:10295000C36823F44013C3609DF82030012B02BFED
:10296000C36843F48013C360FFF7BBFF9DF81630C4
:10297000012B07D1A36843F00603A360A36843F0CB
:102980002003A360BDE8384004B07047C36843F03B
:102990004003C360FFF7A5FF9DF81D3023B9A36B6B
:1029A00043F48033A363E1E7A36B23F48033F9E7B7
:1029B000022A4AD1274B284A0B44934239D9274B44
:1029C000274A0B44934236D9264AA1F57403A3F54E
:1029D0001053934231D9244AA1F18373A3F5E743FD
:1029E00093422CD3214B224A0B44934229D9214BA9
:1029F000214A0B44934226D3204B214A0B44934255
:102A000023D3204AA1F1B773A3F5585393421ED3A1
:102A10001D4B1E4A0B4493422CBF06230723C2685A
:102A200022F47052C260C26842EA8323C36000206D
:102A300070470F23F3E70E23F1E70D23EFE70C2395
:102A4000EDE70B23EBE70A23E9E70923E7E7082390
:102A5000E5E700BF405327FFFF340C00401E1BFF7B
:102A60003F420F007F4F120020D6130060B6E5FEF4
:102A70005FE3160000D3CEFE40771B00C05BB3FEC1
:102A8000C091210020753800E05459FEE09C4100BF
:102A9000836843F00103836000207047836823F05C
:102AA000010383600020704738B5C368012923F013
:102AB000C04305460C46C36014D1C36843F00053BD
:102AC000C36000240A20FDF7E5FD6B69D90704F116
:102AD0000A0402D4C82CF5D1C824A4F1C803584272
:102AE000584138BD71B9C36843F08043C3600A20C0
:102AF000FDF7D0FD6B69DA0704F10A04EDD5C82CA7
:102B0000F5D1E9E70120ECE782B00023024601930A
:102B1000019B01330193019BB3F1706F15D81369C9
:102B2000002BF5DA8901002341F0200101931161A6
:102B3000019B01330193019BB3F1706F05D81069BC
:102B400010F02000F4D102B070470320FBE782B000
:102B5000002302460193019B01330193019BB3F1D2
:102B6000706F13D81369002BF5DA0023019310233B
:102B70001361019B01330193019BB3F1706F05D881
:102B8000106910F01000F4D102B070470320FBE789
:102B9000D0F800381943C0F8001800207047000032
:102BA00084B02DE9F843044609A880E80E0000230C
:102BB0009DF824609DF82E50194603F1400204EB65
:102BC000820201330F2B5160F7D104F50067002D0D
:102BD0006CD17B6843F002037B60A36B43F400136A
:102BE000A363A36B23F40023A363A36B23F48023C9
:102BF000A3630023C4F8003E9DF82930012B5FD168
:102C00009DF82710002959D12046FFF7C1FF102158
:102C10002046FFF779FF01462046FFF798FF08435B
:102C2000C0B2002300383B6118BF01207B6104F56E
:102C30001062FB6119464FF0904C4FF0006E4FF65A
:102C40007F389E423ED8002204F5306311464FF093
:102C5000904C4FF0006E4FF67F38964245D83B6956
:102C600023F480733B610023A3616FF080436361B1
:102C70009DF826301BB9A36943F01003A361A26934
:102C8000234B1343A3619DF82A301BB1A36943F082
:102C90000803A361012D01BFA36943F0804343F002
:102CA0000403A361BDE8F84304B07047A36B23F4A9
:102CB0000013A363A36B43F4002399E71946A3E72A
:102CC0000321A1E7D2F80090B9F1000F0BDA3BB96C
:102CD000C2F800E011610133C2F808802032B0E789
:102CE000C2F800C0F6E71160F4E7D3F80090B9F13C
:102CF000000F0BDA3AB9C3F800E019610132C3F8EA
:102D000008802033A9E7C3F800C0F6E71960F4E7AC
:102D100000383C80D0F8083813F0060004D013F0D7
:102D2000020F14BF02200F20704730B50C7801222B
:102D300004F00F05AA404D78012D00F5006300EB6B
:102D4000441019D1DD692A43DA61D0F800391A0438
:102D500010D48A68D0F80059C2F30A030A792B43C9
:102D600043EA824343EA845343F0805343F40043ED
:102D7000C0F80039002030BDDC6944EA0242DA6163
:102D8000D0F8003B1B04F5D48B68D0F8002BC3F3BC
:102D90000A0313430A7943EA824343F0805343F41E
:102DA0000043C0F8003BE5E710B50A7849780129EF
:102DB00000EB421300F5006002F00F0222D1D3F8BD
:102DC000001900290BDAD3F8001941F00061C3F8AB
:102DD0000019D3F8001941F08041C3F80019C46B01
:102DE000012101FA02F224EA0204C463C16921EA62
:102DF0000202C261D3F80019144A0A40C3F800293C
:102E0000002010BDD3F8001B00290BDAD3F8001BFB
:102E100041F00061C3F8001BD3F8001B41F0804172
:102E2000C3F8001BC46B4FF4803101FA02F224EAAC
:102E30000204C463C16921EA0202C261D3F8001B23
:102E4000034A0A40C3F8002BDAE700BF007833ECEE
:102E50000078F3EF82B000234A7801930B78012ABF
:102E60004FEA43131ED100F51060C118C258002A62
:102E700002DB002002B07047C25842F00062C2502C
:102E8000C25842F08042C25042F21072019B01339C
:102E90000193019B934201D90120EBE70B68002BC2
:102EA000F4DBE6E700F53060C118C258002AE0DA2A
:102EB000C25842F00062C250C25842F08042C25032
:102EC00042F21072019B01330193019B9342E3D8BC
:102ED0000B68002BF6DBCCE710B59DF8084044B931
:102EE000033301329B0800EB023001EB830399426C
:102EF00001D1002010BD51F8042B0260F7E700005B
:102F00002DE9F7434B7891F800E091F804C0724C3A
:102F1000012B1746714B0A6900EB4E1540F08D806E
:102F200005F5106642BB326913403361336943F4DF
:102F300000233361336923403361012F52D1CB69C0
:102F400003B17361BCF1010F0CD1D0F8083813F450
:102F5000807FD5F800390CBF43F0005343F0805315
:102F6000C5F80039D5F8003943F00443C5F80039F5
:102F7000002003B0BDE8F083D6F8108008EA04040E
:102F800034613469234033618B68BEF1000F0DD189
:102F900093423CBF0B611A46336943F4002333610B
:102FA0003369C2F312041C433461C6E79C18013C28
:102FB000B4FBF3F44A4BD6F810801FFA84F903EA05
:102FC000C44444EA0804BCF1010F3461E8D1336918
:102FD00023F0C043336134694FEA497303F0C043BF
:102FE0002343DCE7D5F80039BCF1010F43F004437B
:102FF000C5F800390B690CD0002BB9D0D0F83428B3
:103000000EF00F0E012303FA0EF31343C0F8343809
:10301000AEE7D0F8082812F4807FD5F800290CBF5D
:1030200042F0005242F08052C5F800290097C9686A
:103030009BB27246FFF750FF9AE7D5F8108B08EA6B
:103040000404C5F8104BD5F8104B234005F5306645
:1030500033618B68BEF1000F27D102B10B610B62A7
:103060003269C3F3120313433361336943F400231A
:10307000012F336102D1CB6803B17361BCF1010F41
:103080000CD1D0F8083813F4807FD5F8003B0CBF82
:1030900043F0005343F08053C5F8003BD5F8003BA4
:1030A00043F00443C5F8003B62E7002AD8D09C18DF
:1030B0000B4AD6F810E0013CB4FBF3F4A4B202EAE8
:1030C000C442634342EA0E020B6232613269C3F3C7
:1030D00012031343CCE700BF0000F8FFFFFF07E037
:1030E0000000F81F70B50023940800F5805502F029
:1030F0000302A34204D301EB840132B9084670BD38
:103100002E6841F823600133F3E700F58050002377
:103110000468D80024FA00F05854013398B282426F
:10312000F7D15018EBE74A780B78012A00EB4310EF
:1031300012D1D0F80029002A06DB2BB1D0F80039D3
:1031400023F08043C0F80039D0F8003943F400136D
:10315000C0F8003900207047D0F8002B002A06DBA9
:103160002BB1D0F8003B23F08043C0F8003BD0F8EF
:10317000003B43F40013C0F8003BEBE70B784A78C0
:1031800000EB43100B79012AA3F10203DBB20FD14C
:10319000D0F80029012B22F40012C0F8002905D82C
:1031A000D0F8003943F08053C0F800390020704750
:1031B000D0F8002B22F40012012BC0F8002B9EBF88
:1031C000D0F8003B43F08053C0F8003BEEE7D0F866
:1031D000003823F4FE63C0F80038D0F80038090145
:1031E00001F4FE611943C0F8001800207047D0F8C0
:1031F000003E23F00303C0F8003ED0F8043823F06B
:103200000203C0F8043800207047D0F8003E23F0D5
:103210000303C0F8003ED0F8043843F00203C0F8BE
:103220000438002070474269806910407047D0F828
:10323000183800F50060C0691840000C7047D0F8DD
:10324000183800F50060C069184080B2704700EB84
:10325000411100F50060D1F8082B4069104070471B
:10326000D0F81028D0F8343800EB411001F00F01ED
:10327000CB4000F51060DB018068DBB213431840DF
:103280007047406900F001007047D0F800396FF3D3
:103290000A03C0F80039D0F8043843F48073C0F84A
:1032A000043800207047000030B5056C104CA54272
:1032B00000F5306303D9D0F8004B002C16DB002456
:1032C0001C611C6944F400241C611C6944F018044E
:1032D0001C611C69012944F0C0441C6101BF5A6192
:1032E000D0F8003B43F08023C0F8003B002030BD05
:1032F0000A30544F03F01EBB03F024BB8AB00023F6
:1033000008287CD8DFE800F00513202D3A475461E7
:103310006E0001933B4B3C481A6B42F001021A636A
:103320001B6B03F001030193019B0AB070470293EA
:10333000344B36481A6B42F002021A631B6B03F0DF
:1033400002030293029BF0E703932E4B30481A6B63
:1033500042F004021A631B6B03F004030393039B04
:10336000E3E70493274B2B481A6B42F008021A63D9
:103370001B6B03F008030493049BD6E70593214BD2
:1033800025481A6B42F010021A631B6B03F01003FE
:103390000593059BC9E706931A4B20481A6B42F028
:1033A00020021A631B6B03F020030693069BBCE705
:1033B0000793144B1A481A6B42F040021A631B6BB6
:1033C00003F040030793079BAFE708930D4B1548A5
:1033D0001A6B42F080021A631B6B03F080030893A0
:1033E000089BA2E70993074B0F481A6B42F48072BF
:1033F0001A631B6B03F480730993099B95E7002004
:1034000093E700BF00380240000002400004024081
:1034100000080240000C024000100240001402406C
:1034200000180240001C02400020024008B5044978
:1034300000F09EFBC0F3C430122800D9FEE708BD9F
:10344000F8830008A0F58053013B022B00D9FEE76A
:103450006FF47F631844704708B5074900F088FB94
:10346000C0F3C430012802D0022802D0FEE70020B9
:1034700008BD1020FCE700BFD48300080268094B98
:103480009A420DD103F5E2331A6A42F000521A62F1
:103490001A6A22F000521A621A6C22F000521A6460
:1034A000704700BF0074004010B5094986B004465B
:1034B00000F03CFB019048B12046FFF7CDFF0146EC
:1034C00001A8FDF7E7FB01A8FDF7D6FB06B010BD8C
:1034D000D483000803681D4A934284B013D10023AB
:1034E00001931B4B5A6C42F480725A645B6C03F478
:1034F00080730193019B174B1868C30423D41649AA
:1035000004B000F0FBBA154A93420CD10023029399
:103510000F4B5A6C42F400725A645B6C03F40073F4
:103520000293029BE7E70E4A9342E4D10023039300
:10353000074B5A6C42F480625A645B6C03F48063FC
:103540000393039BD7E704B0704700BF00200140FE
:10355000003802402C000020F883000800210140C0
:1035600000220140114B12495A6A42F480725A6299
:103570005A6A22F480725A6202688A4204D15A6CF2
:1035800022F480725A6470470A498A4207D15A6C01
:1035900022F400725A645A6C22F40072F2E706496F
:1035A0008A42F0D15A6C22F48062EBE70038024084
:1035B000002001400021014000220140F0B599B0F7
:1035C000044648220E4606A8002103F053FB1022B1
:1035D000002102A803F04EFB0023E204ADF8023004
:1035E000019361D541F203039C425DD83A4B0693A7
:1035F0002046FFF727FF07270546082E65D00A2E2D
:1036000066D0062E0CBF4FF0407300234FF480327B
:10361000CDE90723314A0023CDE90933CDE9102351
:103620008DF830308DF838300F938DF84830169380
:1036300014938DF854302A4B012606A80B960D964C
:103640001C60FDF73BF800283AD1CDE9047002A9CF
:1036500006A8CDE90256FDF7E1F9002830D106A809
:10366000FDF7ECF860BB0A2106A8FDF780F938BB2E
:1036700006A8FDF763FA830505D506A8FDF7CAF984
:1036800080B2ADF8020006A8FDF756F9C0B906A849
:10369000FDF7BAF8A0B9134A536823F44003536006
:1036A000BDF8020080B20CE00F49204600F03EFA5F
:1036B00001A906902046FFF7B9FE069B054613B9FF
:1036C000002019B0F0BD012797E74FF000739DE788
:1036D0004FF080739AE700BF002001400100000F07
:1036E0002C00002000230140F8830008F8B513499E
:1036F000134F064600F01AFAFEF73EFF57F8203047
:10370000054673B9B020FFF7F5FD0C490446304675
:1037100000F00CFA01462046FFF794F857F82530E0
:103720001C601C6844B12046FEF788FF2046B0218B
:10373000BDE8F840FFF7E0BDF8BD00BF9880000885
:1037400070030020FCF7A0BF704708B5FCF790FF9E
:10375000FDF77DFAFFF7F8FF08BD704784B0114B05
:1037600000220192196C41F080511964196C01F02A
:103770008051019101990292596C41F48041596440
:10378000596C01F480410291029903921A6B42F440
:1037900080521A631B6B03F480530393039B04B0A2
:1037A000704700BF003802400C4BD3F8FC20D20118
:1037B0005EBFD3F8FC2042F08072C3F8FC20084BB7
:1037C00000225A601A6842F001021A6000BF00BF6E
:1037D00000BF5868B0FA80F04009704700ED00E083
:1037E000001000E008B5FFF7B9FFFFF7DDFFFCF7B9
:1037F00025FFFFF7B2FF02F0A9FB0348FDF72CFA03
:10380000BDE8084002F098BB300000200023C0E96A
:103810000033C0E9023370470023012803F101029D
:103820000AD11422DBB25343054A181D10448168A3
:1038300029B11A441369184740081346EDE7704749
:10384000A80300200120FDF787BA0220FDF784BA03
:103850000420FDF781BA0820FDF77EBA1020FDF79D
:103860007BBA08B52020FDF777FA4020FDF774FAFF
:103870008020FDF771FA4FF48070FDF76DFABDE816
:1038800008404FF40070FDF767BA38B506244FF4CE
:103890008065A8B2FDF760FA013C4FEA4505F8D112
:1038A00038BD0000344A104608B5062300F8043B32
:1038B000FFF7ACFF072302F118001375FFF7A6FF0F
:1038C000082302F12C0082F82830FFF79FFF09231C
:1038D00002F1400082F83C30FFF798FF0A2302F122
:1038E000540082F850301721FFF790FF02F1680072
:1038F00082F86410FFF78AFF02F17C0082F87810EA
:10390000FFF784FF02F1900082F88C10FFF77EFF32
:1039100002F1A40082F8A010FFF778FF02F1B800CE
:1039200082F8B4102821FFF771FF02F1CC0082F871
:10393000C810FFF76BFF02F1E00082F8DC10FFF720
:1039400065FF02F1F40082F8F010FFF75FFF02F567
:10395000847082F80411FFF759FF02F58E7082F827
:103960001811FFF753FFBDE8084002F5987082F880
:103970002C11FFF74BBF00BFA803002038B5054C42
:10398000A4F5A075143C201DFEF7EDFDAC42F9D165
:1039900038BD00BFE804002030B591FAA1F391FAD8
:1039A000A1F1B3FA83F3C4685B000325B1FA81F196
:1039B00005FA03F3490024EA03038A401A43C2606C
:1039C00030BD431C04D00C3151F80C3C5A1C01D1C1
:1039D00000207047834201F10C01F5D101207047AE
:1039E000F8B5471C06460D4600D1FEE700F00F0271
:1039F000414BC0F3031053F82240FFF77FFC94FAC9
:103A0000A4F3B3FA83F3876803225B0002FA03F39B
:103A100094FAA4F2B2FA82F227EA030752000323CF
:103A200093403B4305F007018360032903D8DFE897
:103A300001F05F612C03FEE7032394FAA4F2B2FACB
:103A400082F206685200032707FA02F226EA02060B
:103A500094FAA4F2B2FA82F252009340013933434D
:103A60000129036005D843682A074CBF2343A343B9
:103A70004360C5F30112012A02D0022A18BF0022B6
:103A80002146BDE8F840FFF787BFC5F306227F2A2D
:103A900001D10223D1E7360716D5230A93FAA3F6FC
:103AA000B6FA86F6476A93FAA3F3B6004FF00F0C06
:103AB000B3FA83F30CFA06F69B0027EA060602FA2D
:103AC00003F333434362E4E794FAA4F3B3FA83F3D2
:103AD000066A9B000F2707FA03F326EA030694FA07
:103AE000A4F3B3FA83F39B009A4032430262D0E717
:103AF0000023A2E70123A0E77C7D0008431C06D138
:103B00007047834202D18968FFF76ABF0C310B68A6
:103B10005A1CF6D1FEE70B685A1C01D100207047F1
:103B2000834201D1486870470C31F4E7431C01D04F
:103B3000FFF7F1BF002070474B6813B94FF0FF301B
:103B40007047834201D1086870470C31F4E708B12F
:103B5000FFF7F2BF4FF0FF30704703460868421C82
:103B600000D17047984201D1886870470C31F5E761
:103B7000431C01D0FFF7F1BF704703468B42084654
:103B800004D01BB100290CBF18460020704700006C
:103B90001049D1F8883043F47003C1F888300E4BD7
:103BA0001A6842F001021A6000229A601A6822F034
:103BB000847222F480321A60084A5A601A6822F429
:103BC00080221A604FF43F02DA604FF000638B608E
:103BD000704700BF00ED00E00038024010300024C4
:103BE0000438704703686D4A93428EB02AD1002290
:103BF00000926B4A516C41F001015164526C02F029
:103C000001020092009A674A93422AD1002205924B
:103C1000634A116C41F010011164126C02F0100241
:103C20000592059A604A93422AD100230A935C4B7D
:103C30005A6C42F480225A645B6C03F480230A932A
:103C40000A9BA9E0B3F1804F2AD100220192544A85
:103C5000116C41F001011164126C02F00102019239
:103C6000019A524A93422AD1002206924C4A116C80
:103C700041F020011164126C02F020020692069AB3
:103C80004B4A93422AD100230B93454B1A6C42F0C6
:103C900040021A641B6C03F040030B930B9B7BE008
:103CA000444A93422AD1002202923D4A116C41F0CB
:103CB00002011164126C02F002020292029A3E4A60
:103CC00093422AD100220792354A516C41F00201F9
:103CD0005164526C02F002020792079A374A9342EB
:103CE0002AD100230C932E4B1A6C42F080021A64E6
:103CF0001B6C03F080030C930C9B4DE0304A934205
:103D00002AD100220392264A116C41F00401116469
:103D1000126C02F004020392039A2A4A93422BD1B6
:103D2000002208921E4A516C41F480315164526C59
:103D300002F480320892089A234A93422CD100233D
:103D40000D93174B1A6C42F480721A641B6C03F4C7
:103D500080730D930D9B1FE01C4A93427FF453AF79
:103D6000002204920E4A116C41F008011164126C99
:103D700002F008020492049A154A93427FF452AF6B
:103D800000230993064B5A6C42F400325A645B6C70
:103D900003F400330993099B0EB070470000014003
:103DA000003802400010004000480140001400406C
:103DB000001800400004004000040140001C0040C6
:103DC000000800400040014000200040000C00407E
:103DD0000044014003683B4A934215D13A494A6C7A
:103DE00022F001024A64394A934215D136490A6CDD
:103DF00022F010020A64364A934215D102F570424D
:103E0000536C23F480235BE0B3F1804F16D12E492D
:103E10000A6C22F001020A642E4A934216D12A4902
:103E20000A6C22F020020A642B4A934216D102F552
:103E30000832136C23F0400313647047274A9342FF
:103E400015D121490A6C22F002020A64244A9342E5
:103E500015D11D494A6C22F002024A64214A93425C
:103E600015D102F50732136C23F08003E4E71E4AF4
:103E7000934215D114490A6C22F004020A641B4AC9
:103E8000934215D110494A6C22F480324A64184A90
:103E90009342D2D102F50632136C23F48073CBE740
:103EA000144A93429FD108490A6C22F008020A641E
:103EB000114A93429FD102F57442536C23F40033AC
:103EC0005364704700000140003802400010004079
:103ED0000048014000140040001800400004004069
:103EE00000040140001C0040000800400040014068
:103EF00000200040000C004000440140431C3AD028
:103F0000294B98423AD018D8A3F54063984237D04D
:103F10000BD8A3F50063984234D003F58063984230
:103F200032D0B0F1804F31D0FEE7204B98422FD0F5
:103F300003F5806398422DD0F6E71D4B98422DD0B3
:103F40000CD8A3F56443984226D003F56043984209
:103F500026D0A3F56443984220D0E5E7154B98425C
:103F60001ED003F5806398421CD0A3F500639842ED
:103F7000DAD1182070476FF00D0070472B20704782
:103F8000322070471D2070471E2070471C2070474C
:103F900036207047372070472D2070472C207047FF
:103FA000192070471A207047001800400010004088
:103FB0000004014000440140431C3AD02B4B98427E
:103FC0003AD01CD8A3F58053984237D00BD8A3F52C
:103FD0000063984234D003F58063984232D0B0F148
:103FE000804F31D0FEE7224B98422FD003F58063FB
:103FF00098422DD0A3F5006398422BD0F2E71D4BD9
:10400000984229D00CD8A3F58043984226D003F5D6
:104010008063984224D0A3F56443984222D0E1E71C
:10402000154B984220D003F580639842DAD11A20CC
:1040300070476FF00D0070472C207047322070479A
:104040001D2070471E2070471C2070473720704786
:104050002B20704736207047182070471B20704770
:104060002E2070472D20704719207047001C0040FB
:1040700000140040004001400044014038B5FFF703
:10408000B1FD04460068FFF739FFD4E91212FCF7CE
:1040900069FD2068FFF732FFFCF796FD22681046A5
:1040A000FFF78AFF05461046FFF728FF85420BD031
:1040B0002846D4E91212FCF755FD2068FFF77CFF73
:1040C000BDE83840FCF780BD38BD00002DE9F04F59
:1040D00089B004468A46406D93499846129B0193E5
:1040E0009146FFF723FD91498346A06DFFF71EFD22
:1040F0008F490646E06DFFF719FD8E490546206E93
:10410000FFF714FD0746BBF1000F00F00A81A26D16
:10411000013202D0002E00F00481E26D013202D0A3
:10412000002D00F0FE80226E013202D0002F00F040
:10413000F88031465846FFF720FD0346206020B93D
:104140000146FFF71AFD0346206029461846FFF78F
:1041500014FD39462060FFF710FD2060002800F0B4
:10416000E080754B98424FD103F594335A6A42F080
:1041700010025A625A6A22F010025A620022029217
:104180005A6C42F010025A645B6C03F01003029305
:10419000029B2523A4F864306349606DFFF7AEFCF1
:1041A0001EB16249A06DFFF7A9FC2DB16049E06D19
:1041B000FFF7A4FC4FF480752FB15E49206E45F4E3
:1041C0000075FFF79BFC94F865205C4B94F9640044
:1041D000C4F80C90271D43F822702368C4E9013A03
:1041E000019B0022C4E904380C23C4E9063522628D
:1041F0000121FCF7B7FC3846002E40F08D8009B055
:10420000BDE8F04FFDF74ABF4D4B984217D103F57B
:10421000FA331A6A42F400321A621A6A22F400323D
:104220001A62002203921A6C42F400321A641B6C68
:1042300003F400330393039B4FF49373AAE7414BBA
:10424000984217D103F5F8331A6A42F480221A62B1
:104250001A6A22F480221A62002204921A6C42F432
:1042600080221A641B6C03F480230493049B40F2A5
:1042700027238FE7344B984217D103F5F6331A6A98
:1042800042F400221A621A6A22F400221A62002200
:1042900005921A6C42F400221A641B6C03F400238A
:1042A0000593059B4FF44D7374E7284B984217D143
:1042B00003F5F4331A6A42F480121A621A6A22F47D
:1042C00080121A62002206921A6C42F480121A645A
:1042D0001B6C03F480130693069B40F2354359E7A9
:1042E0001B4B98427FF458AF03F592335A6A42F061
:1042F00020025A625A6A22F020025A620022079271
:104300005A6C42F020025A645B6C03F0200307935E
:10431000079B40F247533DE709B0BDE8F04FFDF77A
:104320008EBE09B0BDE8F08F08800008787F0008D5
:10433000307F0008E87E000800100140E8040020FB
:104340000044004000480040004C00400050004045
:104350000014014010B4019C20B101945DF8044B9D
:10436000FFF7B4BE5DF8044B7047000008B5074B7B
:1043700090F8652053F82200FEF7BAF800F022000A
:10438000A0F122035842584108BD00BFE8040020B4
:1043900008B5074B90F8652053F82200FEF7A8F8FF
:1043A00000F02100A0F121035842584108BD00BF90
:1043B000E804002070B50E46054610B94FF0FF30F6
:1043C00070BDFFF7D3FF04460028F7D1294601222C
:1043D00011F8663F337095F86500034B53F82000E1
:1043E000FEF7A5F82046EBE7E804002038B50D46B7
:1043F0000446B8B1FFF7BAFFA0B994F96400E564C8
:10440000FCF7F0FB94F86500074B04F1660153F8E4
:1044100020000122FEF78BF894F96400BDE83840D3
:10442000FCF7D2BB38BD00BFE804002038B5154604
:104430000446B8B1016590F96400FCF7D3FBE36E64
:10444000B4F8761094F8650013FA81F1064BAAB21D
:1044500053F82000FDF755FE94F96400BDE838409C
:10446000FCF7B2BB38BD00BFE804002048B1836D43
:10447000013306D190F86520024B53F82200FEF775
:1044800007B87047E804002048B1836D013306D1B6
:1044900090F86520024B53F82200FEF711B87047E0
:1044A000E8040020836C04381847C36C04381847AC
:1044B00030B5044650F804391D6815F0010585B083
:1044C00012D0002200921A6800925B680093009B51
:1044D000FFF74CFF40BB012204F16201204605B00A
:1044E000BDE83040FEF723B8196811F0020106D08C
:1044F00001951A6801925B680193019BE8E71A68CD
:1045000012F0040206D002911A6802925B680293CC
:10451000029BDDE719680907DAD503921A6803924E
:104520005B680393039BD3E705B030BD08B5252036
:10453000FCF77EFB024B1868BDE80840FDF75EBE45
:10454000E804002008B52620FCF772FB034B5868EE
:1045500018B1BDE80840FDF751BE08BDE8040020D1
:1045600008B52720FCF764FB034B986818B1BDE839
:104570000840FDF743BE08BDE804002008B534201C
:10458000FCF756FB024BD868BDE80840FDF736BE85
:10459000E804002008B53520FCF74AFB024B1869F7
:1045A000BDE80840FDF72ABEE804002008B5472012
:1045B000FCF73EFB024B5869BDE80840FDF71EBE04
:1045C000E80400200A490346086810B50344EFF3E5
:1045D0000882934205D9074B0C221A604FF0FF3036
:1045E00010BD054A054C121B9342F4D20B60F7E74D
:1045F0003C000020C0140020000002200004000045
:10460000FEE70000024B16221A604FF0FF307047A1
:10461000C01400200120704707B503688DF807100B
:104620005B6801220DF10701984703B05DF804FBB8
:10463000014800F0ADB800BFF8070020F8B50E46FD
:1046400017461546ADB100F063FD90B10A4800F081
:104650009FF8A84228BF284604460028F3D03146D8
:104660000548224600F0B5F82D1B264400F06CFDED
:10467000E8E7781BF8BD00BFF8070020014800F00C
:104680004EB900BF3207002010B5044800F06FF9A2
:10469000044600F08FFD204610BD00BF3207002009
:1046A0002DE9F04106460F46154694B202F0A4F8F3
:1046B000F060224639460B4800F0B6F98046A4EB7C
:1046C0000804A4B200F076FD47443CB102F094F82F
:1046D000F368C01AB3689842EBD32D1B2846BDE897
:1046E000F08100BF320700202DE9FF4706468846CB
:1046F00017461C469DB202F07FF80DF10E09F060DE
:104700002B463A4641460F48CDF8009000F0D4F9C8
:10471000824600F04FFDBDF80E30ED1AADB21F44D9
:10472000BAF1000F04D0641B204604B0BDE8F08746
:10473000002DF9D002F060F8F368C01AB36898420F
:10474000DED3F0E732070020014800F047B900BF90
:104750003207002008B5034800F02AF80028FADCE8
:1047600008BD00BFF8070020044B4FF47A72002107
:10477000C3E90112024A1A60704700BF0005002019
:10478000DC7D00080023A0F88230A0F8803070475C
:10479000B0F88230B0F880209BB292B2981A7F3085
:1047A000434203F07F0300F07F0058BF5842704738
:1047B000B0F88030B0F882209BB292B203F1800052
:1047C000801A434203F07F0300F07F0058BF584235
:1047D0007047F8B5B0F88050ADB2C5F1800595428C
:1047E00004460F46B0F8800016460CD914FA80F043
:1047F00002F098FAB4F8802016FA82F202F07F02F2
:10480000A4F88020F8BD2A4614FA80F002F08AFA53
:10481000721B79192046EBE7B0F88020B0F882309F
:1048200092B29BB29A422BBFB0F88030B0F882307F
:10483000B0F88220C3F1800328BF9B1A9BB20B8083
:10484000A0F88430B0F8823010FA83F07047B0F8E6
:104850008220B0F88430134403F07F03A0F8823044
:1048600070470023A0F8C230A0F8C030C023A0F8E1
:10487000C4307047B0F8C22082B092B2ADF80620C2
:10488000B0F8C010BDF8062089B292B29142B0F8DB
:10489000C020034692B21FD37F2A08D9B0F8C020A7
:1048A00092B2802A09D1BDF8062092B22AB1B3F89B
:1048B000C00013FA80F002B07047BDF8062092B233
:1048C000402A4FF00000F6D9B3F8C02092B2A3F806
:1048D000C420A3F8C000EAE7BDF80610403289B250
:1048E0008A42E4D30020E6E7B0F8C03011FA83F33F
:1048F0009BB2A0F8C030B0F8C020B0F8C43092B27B
:104900009BB29A4224BFC023A0F8C430B0F8C03094
:104910009BB2BF2B84BF0023A0F8C0307047B0F813
:10492000C03082B09BB2ADF80430B0F8C4309BB256
:10493000ADF80630B0F8C220BDF8043092B29BB298
:104940009A4208D8BDF80430B0F8C2209BB292B2A7
:10495000981A02B07047BDF80630BDF80410B0F8E0
:10496000C22089B292B211FA83F0801AF1E7B0F84E
:10497000C02082B092B2ADF80420B0F8C42092B248
:10498000ADF80620B0F8C210BDF8062089B292B288
:10499000914204BF0022A0F8C220B0F8C210BDF8B6
:1049A000042089B292B29142034614D0B0F8C220DA
:1049B00092B2511C89B2A0F8C210B3F8C210805C48
:1049C000BDF8062089B292B2914202D30022A3F828
:1049D000C22002B070474FF0FF30FAE7B0F8C030A5
:1049E00082B09BB2ADF80430B0F8C4309BB2ADF8E1
:1049F0000630B0F8C220BDF8063092B29BB29A429F
:104A000024BF0023A0F8C230B0F8C220BDF80430A3
:104A100092B29BB29A421BBFB0F8C2309BB24FF029
:104A2000FF30C05C02B0704737B504460846B4F8A2
:104A3000C0309BB2ADF80430B4F8C4309BB2ADF8CE
:104A40000630B4F8C210BDF8063089B29BB2994264
:104A500024BF0023A4F8C230B4F8C210BDF804305B
:104A600089B29BB2994294BFBDF80450BDF806507C
:104A7000B4F8C230B4F8C210ED1AADB2954228BFF6
:104A800015462A4614FA81F102F04CF9B4F8C23006
:104A900015FA83F39BB2A4F8C230B4F8C220BDF873
:104AA000063092B29BB29A4228BF0023284628BF04
:104AB000A4F8C23003B030BDF7B51C46B0F8C03022
:104AC000089D9BB2ADF80430B0F8C4309BB2ADF88D
:104AD0000630B0F8C260BDF80630B6B29BB29E4256
:104AE00024BF0023A0F8C230B0F8C260BDF8043083
:104AF000B6B29BB29E4294BFBDF80430BDF80630FA
:104B0000B0F8C260B0F8C2709B1B9BB2A34228BF32
:104B1000234610FA87F70024A6B2B34211D82B809F
:104B2000B0F8C22013FA82F39BB2A0F8C230B0F8FA
:104B3000C220BDF8063092B29BB29A4220D2002029
:104B400018E017F804C08C4516D1B0F8C2309BB2FB
:104B5000013333449BB2A0F8C230B0F8C220BDF894
:104B6000063092B29BB29A4224BF0023A0F8C23012
:104B70002E80012003B0F0BD02F804C00134CBE761
:104B80000023A0F8C230DAE7D0F8D43200EB83007B
:104B900010B5D0F8C0428CB1D0F8C4321BB194F833
:104BA0000002FF2801D1002010BD9B6894F801226B
:104BB00021469847FF2384F80032F4E70320F3E707
:104BC0000A230380004870474401002070B5832108
:104BD00006460F4800F0AAFC012105460C4800F0EB
:104BE000A5FC822104460A4800F0A0FC0DB1102269
:104BF000AA711CB1402222710022627118B14022B8
:104C000002710022427143230148338070BD00BF0E
:104C10004000002070B5832106460F4800F086FC56
:104C2000012105460C4800F081FC822104460A4817
:104C300000F07CFC0DB11022AA711CB1402222713F
:104C40000022627118B14022027100224271432396
:104C50000148338070BD00BF8400002070B58321FF
:104C600006460F4800F062FC012105460C4800F0A2
:104C70005DFC822104460A4800F058FC0DB1102268
:104C8000AA711CB1002222710222627118B10022A5
:104C900002710222427143230148338070BD00BF7C
:104CA000C800002038B5D0F8D432B033044650F8EC
:104CB00023508DB101F0A9F8D4F8D432C5F80C0214
:104CC00004EB8304D5F80402D4F8C43205F503716B
:104CD000DB689847002038BD0320FCE7F8B5D0F822
:104CE000D46200EB86060A46D6F8C05235B301F00E
:104CF0000F0C142707FB0C07BB698BB1D0F8C84217
:104D00004FF0240E0EFB0C44E469B3FBF4FC04FBEF
:104D10001C332BB9BB611A4601F069F80020F8BDBD
:104D20000023C5F81432D6F8C4321B69002BF5D025
:104D3000D5F8080205F504719847EFE70320EEE780
:104D4000D0F8D432F7B500EB83030022D3F8C06269
:104D50008DF8052004460D46ADF80620002E65D0DE
:104D600091F800C01CF0600229D0202A5AD1CA88CC
:104D70004F78F2B11CF0800F0ED0D3F8C432314618
:104D80009B6838469847EA88072A28BF0722314699
:104D9000204600F053FE09E0402A28BF402286F852
:104DA000007286F80122314600F05DFE002003B05B
:104DB000F0BDD3F8C43238469B689847F6E74B7885
:104DC0000B2B2FD801A252F823F000BFFD4D000895
:104DD000AD4D0008254E0008254E0008254E000860
:104DE000254E0008254E0008254E0008254E0008D7
:104DF000254E00080D4E00081D4E000890F89C320C
:104E0000032B0FD102220DF10601C1E790F89C326D
:104E1000032B07D101220DF10501B9E790F89C326F
:104E2000032BC3D02946204600F0DCFD0320BEE75B
:104E300038B504460025822100F0ABFF0121A4F81B
:104E40004C50204600F0A5FFA4F87851832120465D
:104E500000F09FFFD4F8D432256604EB8303D3F827
:104E6000C02252B1D3F8C4325B689847D4F8D43228
:104E7000B03344F82350C4F8BC52002038BD0000C1
:104E8000F8B52D4D04464FF407720021284601F075
:104E9000F1FED4F8D432B03344F82350237CC4F864
:104EA000BC52CBBB4FF4007382210222204600F09B
:104EB00066FF0121A4F84C104FF400730222204633
:104EC00000F05DFF012610230322A4F86230832145
:104ED0000823A4F87861204600F051FFD4F8D432BA
:104EE000A4F8606004EB83030027D3F8C432C5F84C
:104EF00004721B689847D5F80422C5F81472C5F8E7
:104F00001872B2B1237C93B94FF400733146204636
:104F100000F074FF0020F8BD4023822102222046C9
:104F200000F02DFF0121A4F84C104023C6E74023D8
:104F3000ECE70220EFE700BF1005002039B1D0F800
:104F4000D43200EB8300C0F8C41200207047032065
:104F50007047D0F8D432B03350F823302BB1C3F8B7
:104F60000812C3F810220020704703207047D0F8C1
:104F7000D432B03350F823301BB1C3F804120020F0
:104F8000704703207047D0F8D432B03310B550F8D2
:104F900023207AB1D2F8144201236CB9C2F814323A
:104FA000D2F810320364D2F80822822100F01FFFE9
:104FB000204610BD0320FCE71846FAE7D0F8D422BB
:104FC000B03208B550F8222062B1037CD2F8042236
:104FD00033B94FF40073012100F010FF002008BD29
:104FE0004023F8E70320FAE7D0F8D422B03208B51E
:104FF00050F8223033B100231A46012100F0FEFEA2
:10500000002008BD0320FCE70020704721280ED0B7
:1050100022281DD0202808D1184B0A681A600A7966
:105020001A714A795A718A799A7100207047134B24
:105030001A680A701A68120A4A705A888A70DA78EE
:10504000CA701A790A715A794A719B798B71ECE7A7
:105050000B4A4B8812780B49002A14BF1A460122CA
:1050600002F001020A700A7812B1074A00211160A9
:10507000064AC3F340031370D7E700BF5001002076
:105080006D010020310700202C0700203007002090
:1050900008B50948FFF776FB0848FFF7E2FB084B25
:1050A000064801221A70FFF7E5FB01460548FFF7A5
:1050B0005EFF002008BD00BFF80700203207002077
:1050C0006C0100208008002010B50C4C22789AB9A1
:1050D0000B490C4800F0A0F870B90B49094800F0E2
:1050E000AEF848B909490748FFF728FF20B9054835
:1050F00000F0BEF80123237010BD00BF7E08002021
:10510000A0010020800800200C0100205801002090
:105110000A4B10B51C6814B1FBF7B6FA041B084B18
:1051200093F89C32032B07D1022C05D8054B187835
:10513000C0B200F0010010BD0020FAE72C070020EB
:10514000800800203107002037B50F4CD4F8BC325E
:10515000D3F81432ABB90D480DF10601FFF75CFB33
:10516000BDF80630054663B1FBF78EFA084BBDF873
:105170000620186029462046FFF7EBFE2046FFF781
:1051800002FF03B030BD00BF80080020F8070020F8
:105190002C07002010B5054B054800241C60FFF7C4
:1051A00056FBFFF7D1FF204610BD00BF2C070020A3
:1051B000F807002038B50A4D2B780BB1002038BD18
:1051C0000848FFF757FB01460028F7D0012406489E
:1051D0002C70FFF7CCFE0448FFF7F0FE2046EEE708
:1051E0006C010020320700208008002008B50988E3
:1051F0000648FFF779FB064B00221A70FFF7DAFF2B
:1052000010B90448FFF7F0FE002008BD3207002067
:105210006C0100208008002078B10023C0F8B8326B
:10522000C0F8C432C0F8D03209B1C0F8B4120123BA
:1052300080F89C32027000F069BD0320704713B5FE
:1052400000230446ADF8063081B1CB6AC0F8B8122D
:1052500023B10DF106009847C4F8D002D4F8D83233
:105260000133C4F8D832002002B010BD0320FBE7A0
:1052700000F07EBDD0F8B8320BB11B681847184655
:10528000704708B5D0F8B8325B689847002818BF57
:10529000032008BD38B5044600F2AA25284600F0D0
:1052A00096FB012394F8AA12C4F89432B4F8B032F1
:1052B000C4F8983201F01F03012B08D0022B0CD048
:1052C0008BB929462046BDE8384000F04DB9294643
:1052D0002046BDE8384000F0ABBA29462046BDE87C
:1052E000384000F0D4BA204601F08001BDE83840D3
:1052F00000F056BD70B50446164609BBD0F894328E
:10530000032B0CD1D0E9573293420AD99B1A9A4207
:10531000C0F85C3128BF1A46314600F0B1FB0020CE
:1053200070BD90F89C32032B06D1D0F8B8321B69BF
:1053300013B1C0F8D4129847204600F0A9FBEEE75D
:1053400090F89C32032BEAD1D0F8B8329B69002B3D
:10535000E5D00022BDE87040C0F8D422184770B5EF
:10536000044616460D4600293DD1D0F89432022B52
:105370000ED1D0E90732934212D99A1AC26131464E
:1053800000F069FB2B462A462946204600F036FDF0
:1053900094F8A03213B1002384F8A032002070BD2D
:1053A0000CD18269934209D8D0F898329A4205D23A
:1053B0000A4600F050FBC4F89852E3E794F89C3298
:1053C000032B08D1D4F8B832DB6823B10022C4F82B
:1053D000D422204698478021204600F0E1FC204658
:1053E00000F061FBD4E790F89C32032BD6D1D0F8C3
:1053F000B8325B69002BD1D00022BDE87040C0F804
:10540000D4221847F8B5012380F89C32D0F8B8327E
:1054100000210446C0F894124160C0F8A41280F83C
:10542000A012B3B9002600224025114601274023CF
:10543000204600F0A4FCA4F86471C4F860512B4627
:1054400000228021204600F09AFCA7842562304685
:10545000F8BD5B68002BE5D098470028E2D0032612
:10546000E1E701740020704790F89C32042B1EBFC6
:1054700090F89C32DBB280F89D32042380F89C3295
:105480000020704790F89C32042B02BF90F89D32A8
:10549000DBB280F89C320020704708B590F89C225F
:1054A000032A05D1D0F8B83213B1DB6903B19847AC
:1054B000002008BDD0F8D422AE3208B550F8222022
:1054C0004AB190F89C32032B01D1136A0BB900202A
:1054D00008BD9847FBE70320FAE7D0F8D422AE32A4
:1054E00008B550F822204AB190F89C32032B01D124
:1054F000536A0BB9002008BD9847FBE70320FAE781
:1055000000207047012208B580F89C22D0F8B8220C
:105510000AB9002008BD5268017990470028F8D0E8
:105520000320F7E7002070470020704710B542883D
:1055300003789A420AD90478204423444478052CFD
:105540009BB2F6D184788C42F3D110BD0020FCE7E9
:1055500010B58021044600F023FC20460021BDE860
:10556000104000F01DBC000073B50B7803F0600321
:10557000202B04460D4609D0402B07D093B120467E
:10558000FFF7E6FF0025284602B070BDD4F8D432FC
:10559000AE33294654F823309B68204602B0BDE85C
:1055A000704018474B78092BE9D801A252F823F034
:1055B000CF570008135800087F550008F757000818
:1055C0007F550008C9560008D95500087F550008C6
:1055D000A35700080B57000849880023ADF8063090
:1055E0000B0A013B062BCAD801A252F823F000BFD8
:1055F0000D5600083F560008595600087F55000810
:105600007F5500089B560008B1560008D0F8B43208
:105610001B68207C0DF106019847EA88002A00F0FB
:10562000A380BDF80630002BA9D09A4228BF1A46A5
:10563000ADF806200146204600F000FAA2E7027C01
:10564000D0F8B83232B99B6A0DF1060098470223B0
:105650004370E2E7DB6AF7E7C9B2D0F8B432052954
:1056600012D8DFE801F00307090B0D0F5B68002B70
:10567000CFD184E79B68FAE7DB68F8E71B69F6E7B8
:105680005B69F4E79B69F2E7DB69002B3FF477AFD6
:105690000DF10602007C9847BFE7037C002B7FF4E6
:1056A0006EAFD0F8B8320DF106005B6B9847B4E7E7
:1056B000037C002B7FF463AFD0F8B8320DF1060005
:1056C0001B6B98470723C3E78B88002B7FF457AFEA
:1056D000CB88002B7FF453AF4D887F2D3FF64FAF23
:1056E00090F89C32032B3FF44AAFEDB280F89E5203
:1056F000294600F075FB204600F0CAF91DB10223CF
:1057000084F89C323EE70123FAE78978474D012966
:10571000297003D9FFF71CFF032534E790F89C326A
:10572000022BDEB208D0032E17D0FFF711FF297825
:105730002046FFF7A6FDEFE7B1B101214160FFF779
:1057400099FD0546204625B1FFF702FF84F89C62CB
:1057500019E700F09DF90323D2E749B9022380F845
:105760009C324160FFF78DFD204600F091F909E77A
:1057700041680129F8D0C9B2FFF783FD297861603B
:105780002046FFF777FD05460028EDD02046FFF7BD
:10579000DFFE21792046FFF774FD022384F89C3256
:1057A000F1E6CA88012A7FF4EAAE90F89C12022939
:1057B000CBB207D8002B3FF4E2AE0146002341F8FC
:1057C000083F38E7032B7FF4DAAE011D33E790F88A
:1057D0009C32013B022B3FF6D2AECA88022A7FF4EC
:1057E000CEAED0F8A4320146002B0CBF0123032318
:1057F00041F80C3F1FE74B88012B02D1C4F8A432BB
:10580000B2E7022B7FF4BBAE8B881B0A80F8A03274
:10581000AAE790F89C32013B022B3FF6B0AE4B88D2
:10582000012B7FF4AFAE0023E8E700BF5C0B002044
:1058300070B50B7803F060025B0604460E4601D596
:10584000402A1FD194F89C32013B022B1AD831799F
:105850000229204617D8FFF765FE88B9D4F8B83278
:105860009B686BB1C4F8D402314620469847054680
:10587000F3881BB915B9204600F00AF9284670BD17
:105880000325F5E72046FFF763FE0025F6E770B530
:105890000B788A880D7903F06003202B04460E46AE
:1058A00057D0402B55D01BB12046FFF751FE3CE0AE
:1058B0004B78012B3BD0032B24D0002BF4D190F854
:1058C0009C32022BD9B260D00329EDD105F00F0331
:1058D00012F0800F4FF0140202FB030364D09B8C84
:1058E000002BE1D005F07F03142603FB0666802D14
:1058F000064465D02946204600F060FA002864D0AE
:1059000001235EE090F89C32022BDAB233D0032AF6
:10591000CAD14B8833B9690604D0F38813B9294634
:1059200000F03EFA204600F0B3F8002070BD90F879
:105930009C32022BDAB21ED0032AB5D14B88002B41
:10594000F3D16B0602D0294600F031FA204600F070
:105950009FF829462046FFF7E7FD0028E5D1D4F857
:10596000B832C4F8D4029B68002BDED03146204602
:10597000BDE8704018476A0696D0294600F010FA34
:105980008021204600F00CFACFE769068CD113067F
:105990004CBF00F1140100F5AA7100230B60022234
:1059A000204600F04BF8C0E7B3F86431002B3FF419
:1059B0007BAF142606FB050606F5AA76002D99D1C5
:1059C0000023336002223146EAE73060FAE70B78C1
:1059D00003704B7843704B8843808B888380CB88DF
:1059E000C380704710B58021044600F0D9F92046E5
:1059F0000021BDE8104000F0D3B970B50D46164641
:105A0000044698B1FAF7CEFBC0B2013043008028BB
:105A10008CBF4FF480739BB233802B7003236B7069
:105A2000013C0223002114F8012F02B970BDEA5491
:105A30005A1CD2B20233A954DBB2F4E710B51346B4
:105A40000222C0E90633C0F894220A46002100F081
:105A5000CEF9002010BD08B513460A46002100F01B
:105A6000C6F9002008BD10B513460322C0E956331D
:105A7000C0F894220A46002100F0C0F9002010BDB1
:105A800008B513460A46002100F0B8F9002008BD09
:105A900008B504220023C0F8942219461A4600F0E3
:105AA000A6F9002008BD08B505220023C0F89422FD
:105AB00019461A4600F0A2F9002008BD30B5036867
:105AC000B3F1A04F85B004463AD1424D03E0A96836
:105AD000FDF786FF0C352868421CF8D13E4B5A6B07
